:1000000080C2002055250000B7E901002925000025
:1000100029250000292500002925000000000000F6
:10002000000000000000000000000000C91D0000EA
:100030002925000000000000651D000029250000A2
:10004000851E0000851E0000851E0000851E000024
:10005000851E0000851E0000851E0000851E000014
:10006000851E0000851E0000851E0000851E000004
:10007000851E0000851E0000851E0000851E0000F4
:10008000851E0000851E0000851E0000851E0000E4
:10009000851E0000851E0000851E0000851E0000D4
:1000A000851E0000851E0000851E0000851E0000C4
:1000B000851E0000851E0000851E0000851E0000B4
:1000C000851E0000851E0000851E0000851E0000A4
:0C00D000851E0000851E0000851E00003B
:1000DC0053B94AB9002908BF00281CBF4FF0FF31A3
:1000EC004FF0FF3000F00CB8ADF1080C6DE904CE08
:1000FC0000F008F8DDF804E0DDE9022304B07047F5
:10010C00704700BF2DE9F04786468C460846089E8E
:10011C00154674461946002B40F0C2808542B2FA4F
:10012C0082F245D94AB1C2F1200300FA02FC2EFA40
:10013C0003F3954043EA0C0C94404FEA154EA8B2D9
:10014C00BCFBFEF8230C0EFB18CC08FB00F943EAB1
:10015C000C43994528D9EB1808F1FF3704D299457F
:10016C0002D9A8F102072B44A3EB0903A4B2B3FBF9
:10017C00FEFC0EFB1C330CFB00F044EA0344A042D3
:10018C0014D92C190CF1FF3304D2A04202D9ACF1D2
:10019C0002032C44241A43EA07401EB1D440002326
:1001AC0034607360BDE8F0874746DDE76346F1E7EE
:1001BC0092BB431B01214FEA154EAFB2B3FBFEFCC1
:1001CC00200C0EFB1C330CFB07F840EA034398454C
:1001DC0062D9EB180CF1FF3004D2984502D9ACF17E
:1001EC0002002B44A3EB0803A4B2B3FBFEFC0EFBF2
:1001FC001C330CFB07F744EA0344A7424ED92C19D5
:10020C000CF1FF3304D2A74202D9ACF102032C4407
:10021C00E41B43EA0040C0E7C2F1200320FA03F1DB
:10022C00954090402EFA03F303434FEA154EAFB2BC
:10023C00B1FBFEFC0EFB1C10190C0CFB07F841EA81
:10024C000041884504FA02F422D969180CF1FF30F8
:10025C0004D2884502D9ACF102002944A1EB080173
:10026C009BB2B1FBFEFC0EFB1C110CFB07F743EA27
:10027C0001439F420ED9EB180CF1FF3104D29F427F
:10028C0002D9ACF102012B44DB1B41EA004192E79D
:10029C006046E3E76146F7E76046A3E76346B7E7E6
:1002AC00834206D916B9002108467BE7C6E900E06F
:1002BC00F9E7B3FA83F78FB9834201D3724508D8B3
:1002CC00BEEB020460EB030301209C461EB9002127
:1002DC0068E73846FAE7C6E9004CF8E7C7F1200CA6
:1002EC00BB4022FA0CF41C432EFA0CF120FA0CF34E
:1002FC00B84001434FEA14490EFA07F5B3FBF9F87D
:10030C001FFA84FE09FB18300B0C08FB0EFA43EAAB
:10031C0000439A4502FA07F240D9E31808F1FF307E
:10032C0004D29A4502D9A8F102002344A3EB0A0394
:10033C0089B2B3FBF9F809FB183308FB0EFE41EA4E
:10034C0003418E452CD9611808F1FF3304D28E4538
:10035C0002D9A8F10203214443EA0040A0FB029811
:10036C00A1EB0E014145CE46434602D306D14D4585
:10037C0004D2B9EB020E68EB04030138002EA6D0B0
:10038C00B5EB0E0261EB030101FA0CFC22FA07F348
:10039C004CEA0303F940C6E9003198E74046C5E74B
:1003AC004346D9E710F8012B11F8013B012A28BF6D
:1003BC009A42F7D0D01A7047034611F8012B03F874
:1003CC00012B002AF9D17047034613F8012B002AA0
:1003DC00FBD1181A01387047014B00221A60704784
:1003EC00644800202DE9F0418AB000AF0024C7E931
:1003FC000144C7F80B40524829F0E4FF034678B992
:10040C00504A7A6202223A624F4807F120024FF4B6
:10041C00825101F023F800202837BD46BDE8F08159
:10042C004A4D284629F0CEFF00284BD0D5F8108035
:10043C00AE68D8F80030464A43F40053C8F8003090
:10044C0033680D212846984730B16D4688B06A460E
:10045C00404BC2E9053012E03F49404B4B604FF432
:10046C0000538B60F369ABB10122284698470446D0
:10047C0098B16D4688B06A46394BC2E905340323FE
:10048C0042F8103F304800234FF4C25100F0E6FF11
:10049C00AD46C0E76FF08504EBE7D8F80030B669DD
:1004AC0013F4005F14BF4FF000734FF080634FF0F4
:1004BC00A0720D212846B04720B16D4688B06A461F
:1004CC00284BC6E713F0ECFE04F038FE18F06AF97E
:1004DC002549264E044618F0E5FD00231A4609214D
:1004EC00204620F0DBF813F0DBFE04F027FE18F0BA
:1004FC0059F900231A460521054620F0CFF814F0CF
:10050C004FFF0F481A4C83685B6898472368642137
:10051C00B3FBF1F201FB12333BB93146381D1DF030
:10052C000BF9391D284618F0BDFD14F039FF23686E
:10053C000133236000214FF4A4701CF03DFEE5E76D
:10054C004CA8020046BE0200B8A90200FCA702009B
:10055C001100010066BE020058480020E5030000AF
:10056C008ABE0200ACBE0200D1BE02002A190300F2
:10057C00644800202DE9F04F91B08407009302F0FD
:10058C0004030293C2F3C20303F10103DDF8689084
:10059C00039205460E46059340F0BA81041D30B116
:1005AC00072909D86FF01B0011B0BDE8F08F01F0DE
:1005BC000706341DC6F10806009B4FF00008591EB3
:1005CC004FF0040A4FF0FF330193CDF810804746EB
:1005DC00C34653460DB1009A22600598002800F3DB
:1005EC00E8809848009A824203D397488242C0F030
:1005FC00E080039AA4EB050E92074FEA9E0000F1EF
:10060C0003810F2F00F2B180002D00F0058107F15E
:10061C0040020DEB020C019A0CF8200C0CF8102C7B
:10062C00049801300490E7E07A285DD84B280ED866
:10063C00472859D829282DD8252852D054D82028D5
:10064C007AD02338D0F1000B4BEB000B74E04C3814
:10065C002E2849D8DFE800F07048484848484848F8
:10066C00484848484B484848484848484859484BE7
:10067C004B595959704B6D487048184B1848488263
:10068C007F4B48484B487F0000204FF0000B4FF049
:10069C00040A38E02A38C0B2012202FA00F010EA4B
:1006AC000E0F49D110F0625C2FD110EA020B43D02F
:1006BC006046013C5444B4FBFAF40AFB04F4002DEC
:1006CC0061D0A3EB050CA4446645FFF46BAF002886
:1006DC0068D1042B47D159F8043B2360043404231C
:1006EC002AE0019A013A01924FF0000B24E011F834
:1006FC00010C6C2834D111F8023C00206C2B834681
:10070C00C5D14FF0080A5346D3E709F1070929F080
:10071C0007090734F9E802AB24F0070435B1069851
:10072C002044B0423FF63EAFC4E900AB08344FF072
:10073C00000B4FF0080A534611F8010F002878D02F
:10074C00BBF1000F7FF470AF2528F5D1019B01336D
:10075C0001934FF0010B4FF0040AECE7584694E775
:10076C0000208346A5E7082B02D06FF015001BE78D
:10077C0009F1070929F00709F9E80223C4E9002364
:10078C0008340823D8E768B9042B02D109F104090D
:10079C00A4E7082BE9D109F1070929F0070909F1A8
:1007AC000809EDE7059A013A059259F8042B0092D5
:1007BC0010E7039A900720D5A4EB050E4FEA9E0094
:1007CC004FF0010CBEF5007FCFD20F2FCDD8F5B175
:1007DC0007F140020DEB020EC0B2019A0EF8200C8C
:1007EC000EF8102CBCF1000F3FF41AAF60F07F0034
:1007FC000EF8200C08F101080137C5F10802043489
:10080C0006924FF6DA7E97E74FF0000CDAE7BCF170
:10081C00000F01D00136EFE7029802360028EBD129
:10082C000098CDE90631FFF7CFFDDDE9063106442E
:10083C00E2E7631BB3F5806F97D23DB9A6F10804CC
:10084C00E018B1E670A70200F0200300029A2860BD
:10085C009B082B709DF81030C2B1EB7085F80280AC
:10086C00B8F1000F05D008A80022C5F1010C974281
:10087C000ED1C5F101030DF120094FF0000A0193CF
:10088C000DF1300B574512D1601B8DE66B70E5E70F
:10089C0010F8013B190608D504EB0C0E764503F055
:1008AC007F03FFF47FAE04F8013B0132DFE7B8F1C0
:1008BC00000F03D099F90020002A17DB029BD3B15B
:1008CC001AF80B2004F8012B0022019B98182044E5
:1008DC008642FFF467AE99F8000004F8010B00990A
:1008EC000392204629F0FCFE039A14440AF1010AF3
:1008FC0009F10109C6E799F8002055F82230009358
:10090C00029B45F822300098FFF75EFD421CDCE7A5
:10091C006FF00D0048E600BF2DE9F04F95B000AF29
:10092C0090F802B0BB61BB6F7A62C3F3C00304469C
:10093C003B618A4641B9457800780BEB8000204436
:10094C00554517D8A0EB040AE3787B61BBF1000F87
:10095C0002D0BB6FD80716D47B6953BB7B6A1BB123
:10096C00BA69514620469847554628465437BD46E5
:10097C00BDE8F08F461C3046FFF726FD01303044B1
:10098C000AF1010ADCE723783B629B00FB603B6ABF
:10099C006268FA6104EB83097B6A002B40F0FE80ED
:1009AC005546C84609EB0B0A0026D04551D1D9440F
:1009BC0013E0BB6F9907D1D523783B6299469B0016
:1009CC00FB606368FB617B6A04EB8909002B7AD1BD
:1009DC005546BBF1000F4FD15E46BB6F13F0050FB0
:1009EC007B6909EB430ABB6F03F002030CBF4FF0AA
:1009FC00020B4FF0010B7B62D145B6D019F8021BEC
:100A0C0019F8013C54F82380AA4B984502D3AA4B01
:100A1C00984538D33B69002B42D0F8691DF055F945
:100A2C0000283DD0E8468AB06A46A44B5361FB6966
:100A3C00C2E906314FF400731384A14B42F8103F06
:100A4C00A04800234FF4125100F008FD023DC546AA
:100A5C00D2E718F8013B54F82300FFF7B5FCFB6F05
:100A6C0001303BB1D7F880309E423EBFFB6F23F87C
:100A7C0016000136054498E7BB6F13F004061CBF43
:100A8C007E6AD944A9E73B6923B1F8691DF01DF9C9
:100A9C000028C7D1BB6FDA0705D4A5EB0B05ABE774
:100AAC007B6A002BA8D04046FFF78EFCFB6F43B14E
:100ABC00D7F880309E423FBFFA6F431C22F81630A5
:100ACC000136054498E7BBF1000F6DD0BB6F13F0F6
:100ADC0004066CD0D846002607F140005A46494619
:100AEC0029F0FEFD7B695B007B607B69D94409EBD7
:100AFC004303BB60BB6F03F002033B60BB684B4519
:100B0C0057D1B96F6378B86F890706EB030254BFEE
:100B1C004FEA58010021C507D2B200F19A8010F0BB
:100B2C00040F14BF40460020FB616270A070E1709E
:100B3C00BA69F9687B6A20469847051EFFF615AF1F
:100B4C003B6A2370FB6963707B69E3704146BA6949
:100B5C007B6A84F802B007F140009847B0F10008B6
:100B6C00C0F2A480FB68BA69AAEB0B01C91A7B68B6
:100B7C004846C91A7B6A98470028C0F29980A84455
:100B8C0008EB00054FF0000B07F1300AB34562D3B8
:100B9C000021BA697B6A08469847E6E65E464FF044
:100BAC00000807F1300099E75E46D8469AE7B04650
:100BBC0098E719F8021B3F4B19F8015C54F8250013
:100BCC00984202D33C4B98421DD33B6923B1F86940
:100BDC001DF07BF8002891D13B68FBB908F1280384
:100BEC0007F1280208F1010003EB020C07F1500396
:100BFC0053FA80F008F102080CF8101C5FFA88F820
:100C0C0000F8105C7AE73B692BB1F8691DF05DF8D0
:100C1C0000287FF473AFBB6FDB0709D506F12803FF
:100C2C0007F12802711C9E1806F8205CCEB265E70D
:100C3C00BB6F58077FF562AF08F1280307F1280254
:100C4C0008F1010103EB020808F8105C5FFA81F867
:100C5C0054E7002068E71BF80A3087F82F3054F867
:100C6C002390FB6FFBB133F81B80BA697B6A0121BF
:100C7C0007F12F00984700281ADB0544B8F1000F44
:100C8C0006D14846FFF7A0FB00F101081FFA88F8CF
:100C9C00BA697B6A414648469847002808DB0544F8
:100CAC000BF1010B72E7D7F87C80DEE745465CE67A
:100CBC0005465AE670A70200F0200300E2BE0200CF
:100CCC0004000001C0A90200014B1860704700BF6E
:100CDC000000002080B505460E46174698461CF0CD
:100CEC0085FA034629F034FDDFF81890044649F8DC
:100CFC000030424630463946A84754F8090001F006
:100D0C00A3FC00BF080000002DE9F047058B04464A
:100D1C002807904611D4022905F0070540F0CD8034
:100D2C0020461DF065FA78B10138218B042811D8C2
:100D3C00DFE800F0C3106D85950001290CBF45F06C
:100D4C00100545F02005258388F31188BFF36F8FBC
:100D5C00BDE8F08701F0070AAA4500F0A68000273D
:100D6C00B9463E46A368002B00F0BD8041F0080157
:100D7C00218388F31188BFF36F8FA168002900F0DD
:100D8C00BB800D68002900F0B780D1F80480334691
:100D9C0052462046C047002D76D02B6829461D466A
:100DAC00F0E701F007035A1F012A1BD8002221F09B
:100DBC000701062B276889B2C4E9002209D13B46FA
:100DCC0003E0628B013262831B68002BF9D141F086
:100DDC000201218320461DF00BFA00287BD041F044
:100DEC00200177E0042B0AD121F0070189B221837D
:100DFC0020461DF0FDF910B141F020012183218B1B
:100E0C0001F0070AAA4550D00027B946AAE7236982
:100E1C0021F0070141F00601062DD3F80090218343
:100E2C002DD1B9F1000F40D041F00801218388F396
:100E3C001188BFF36F8F3A492046C84729E021F04B
:100E4C000701236941F0040189B2042DD3F8049001
:100E5C002183E6D000273E464FF0040A82E721F0BA
:100E6C000701236941F0050189B2052DD3F80890DB
:100E7C002183D6D000273E464FF0050A72E70027A3
:100E8C003E464FF0060A6DE72B4687E7B9F1000F97
:100E9C00D1D14FF02003EFF3118883F31288BFF305
:100EAC006F8F238B23F008032383258BEA062ED523
:100EBC0025F01003238305F007056669218B002EAE
:100ECC00BFF66FAF00232768C4E9003321F0070198
:100EDC0041F001012183218B01F0070AAA454FF053
:100EEC0000097FF43FAF002F9BD041F00801218314
:100EFC0088F31188BFF36F8F002FC7D03D68394638
:100F0C003346524620461DF09FF92F46F4E7AB06B8
:100F1C007FF51AAF25F02003238305F00705FFE6C4
:100F2C0081E2010003F05EB92DE9F047DFF858804B
:100F3C00044607464FF0010914B93846BDE8F0875E
:100F4C0094FAA4F5B5FA85F509FA05F32E0108EB28
:100F5C0005156FEA030A24EA03042B7B002BEBD064
:100F6C0058F806301B694BB946440422736828466E
:100F7C00196807EA0A0700F05DFADDE7284698478A
:100F8C000028D9D1F0E700BF28AA020030B51049DB
:100F9C00104889B0002229F036FB0F4D0F49002272
:100FAC000023CDE9062300240E23CDE90334CDE93B
:100FBC0001440B4B00944FF4407228461BF092FCFA
:100FCC000849284629F013FA204609B030BD00BF65
:100FDC00F50F0000E00600205802002080AD002034
:100FEC00E512000096BF020001481BF0B9BD00BF1E
:100FFC00480200202DE9F04780461F480F461DF09F
:10100C0039FC0646002830D000252846BDE8F0877C
:10101C00237B73B12368DB680BB1204698472368A8
:10102C001B69D3B9636804221968204600F002FAE0
:10103C00013610344C45EBD3B8F1000FE5D0002D40
:10104C00E2D02846FFF770FF0546002FF7D00021AD
:10105C004FF4A4701CF0B0F8F1E720469847002834
:10106C00E0D00AFA06F31D43E2E7044CDFF81090D7
:10107C0005464FF0010ADDE77848002028AA020057
:10108C0048AA0200014B53F8200070478CAA0200BA
:10109C0008B5034608462BB1044A136000F080FCE7
:1010AC00002008BD6FF01500FBE700BF0400002016
:1010BC0010B5044C237813B903481BF051FD0123E0
:1010CC00237010BD24A800204802002010B504464F
:1010DC0008481DF0CFFB5CB1BFF35B8F064B53E8A8
:1010EC00001F013943E80012002AF8D1BFF35B8FCF
:1010FC0010BD00BF70480020744800200020064B33
:10110C00BFF35B8F014653E8000F43E80012002A3F
:10111C00F9D1BFF35B8F70477048002070B5FFF7B3
:10112C00EDFF084C084E0546B44200D370BD636811
:10113C005B792BB123685B6813B12946204698472D
:10114C001034F1E728AA020048AA020010B5044C9A
:10115C00044920461DF01FFA034B1C6010BD00BF54
:10116C00F801002078AA020068480020084A0948C3
:10117C0008B500231370084A1360084A4FF4004165
:10118C001360FFF785FFBDE80840FFF7DFBF00BF26
:10119C0025A800207DE8010070480020744800203C
:1011AC0001460022014800231DF016BAF801002068
:1011BC0001481DF0AFBA00BFF8010020024B0146F8
:1011CC0018681DF0F9BA00BF6848002001481DF0EE
:1011DC002FBB00BFF801002070B5284B18780028F1
:1011EC004BD0FFF7E5FF054690B1BFF35B8F244B67
:1011FC0053E8001F013943E80012002AF8D1BFF36D
:10120C005B8F204C204EB4422DD32846FFF7D6FFDF
:10121C001E4B1F4C1B68002B19DD29F0F2F94FF403
:10122C007A72A0FB020302FB0131C30BD4E900204C
:10123C0043EA41439B1A4FEAD13140F2E93261EB68
:10124C000001934271F1000101D3FFF767FFD4E96C
:10125C00003213F57A7342F10002C4E90032BDE8A2
:10126C007040FFF7B3BF63685B7923B123682946ED
:10127C001B68204698471034C5E770BD24A8002091
:10128C007448002028AA020048AA020070480020D6
:10129C00D806002070B50D4D297861B90120FFF7F3
:1012AC00A9FE0B4C0B4EB44206D3FFF795FF00285A
:1012BC00FBD101232B7070BD63685B791BB1236874
:1012CC0020469B6898471034EDE700BF25A8002006
:1012DC0028AA020048AA020000212DE9F04708467E
:1012EC00FFF788FE044658B340F267684FF00009D8
:1012FC0029F02EFA1B4B1C4A1B58136033B11B4BA5
:10130C001B68092B02DD1A481BF02AFC194FDFF869
:10131C0060A0002544B12046FFF706FE044618B92C
:10132C004FF0FF384FF0FF39FFF756FF064628B94C
:10133C00B5B942464B4650461BF036FC3546E9E7FC
:10134C004FF0FF384FF0FF39D2E72B689B691BB188
:10135C0000221146284698471035BD42F5D3E8E7E0
:10136C00054DFAE7080000006C4800207448002086
:10137C004802002048AA020028AA020013B5184807
:10138C001DF078FA174B1B787BB14FF02003EFF36D
:10139C00118483F31288BFF36F8FFFF71DFF84F363
:1013AC001188BFF36F8F02B010BD0F4B1B68002B61
:1013BC00F9D050B900220023CDE900230B484FF49B
:1013CC00004200231CF044F9EDE70928EBD1074853
:1013DC0029F025F9064802B0BDE810401BF0C0BB4F
:1013EC007448002025A800206C480020E00600204E
:1013FC004802002010B5064B1B680446984721464E
:10140C00A06004481DF066F9BDE81040FFF7B6BFB8
:10141C0004000020F8010020044A054B9B1AB1EB94
:10142C00D30F34BF52F831000020704798A9020046
:10143C0028AA0200084BC31A10B41B1144680133CC
:10144C00237143689A7143681960436801225A7189
:10145C0010BCFFF72DBE00BF28AA02002DE9F04FEB
:10146C008FB004AFC1F34A28B8600D4691467B603B
:10147C000C0DB8F1000F63D0002607F114034FF0E8
:10148C00040B4FF00A0AC7F80C80C7E907667E62A6
:10149C000193CDF808B0CDF800A007F11C03F96852
:1014AC0032464846FFF738FAB0F5006F03461CD3B6
:1014BC006C468AB0D9F8041004AB2648C3E9050180
:1014CC0040F2FF71D9611A464FF400711984224B16
:1014DC0042F8103F214833464FF41251FFF7BEFF3C
:1014EC00A5462C37BD46BDE8F08FC0F30A0804F1C1
:1014FC001700184420F0070080083B60FFF750FEEF
:10150C0068F35325044690B13B68154AC7E9083681
:10151C0000F1100107F11403F961CDE900A3CDF836
:10152C0008B0F96807F11C034846FFF7F5F968F3B2
:10153C0053257B68B9682A4620461DF0D1F9D0E7BF
:10154C0004F1170020F007008008FFF729FE04467D
:10155C00EDE700BFABBF020004000001E0A90200F0
:10156C00C1E801002DE9F04F87B0DDE91269DDE932
:10157C00105A04460F4693469846A6B31021CDF850
:10158C000090334652460020CDF81490FEF7F2FF3F
:10159C00014605F117000844144B039104F00704AD
:1015AC000BF0070BE40020F0070003EA412344EAA8
:1015BC008B1480081C43FFF7F3FD44EA05540546E1
:1015CC0040B13EB10399CDF80090334652461030ED
:1015DC00FEF7D0FF434622463946284607B0BDE801
:1015EC00F04F1DF07DB93146D3E700BF00FE0F0070
:1015FC000EB403B503AB014653F8042B0448019316
:10160C0001F036F902B05DF804EB03B0704700BF8F
:10161C0053E90100CA0605D48B064CBF02490349A5
:10162C00FFF7E6BF704700BFEBBF0200EABF020046
:10163C002DE9F04F89B09A46DDE914739DF84CB052
:10164C000593169B179E069204460D460493BBF118
:10165C00000F00F0858006F0080307931DF028F9B1
:10166C0006F002090246002849D086492046FFF7B9
:10167C00BFFF8046B9F1000F08D016F0440F40D1DF
:10168C0081492A462046FFF7B3FF804406F0010348
:10169C0053B17E4B7E4953F82B207E4B2046002ABB
:1016AC0008BF1A46FFF7A4FF06F00803002B54D01E
:1016BC00794B7A4953F82B202046FFF799FF0546C2
:1016CC00069B2BB176491A462046FFF791FF05443D
:1016DC00BAF1000F05D0734952462046FFF788FF38
:1016EC0005444544002F49D1049B002B4FD1F307EF
:1016FC0000F1C18031462046FFF78CFFB5E08046F3
:10170C00B8E7694B18680028BFD0684B4FF47A795A
:10171C001B68B5FBF3F54FF46161B5FBF0F300FB0F
:10172C00135509FB05F54FF03C0CB3FBF1F201FB33
:10173C001231B5FBF0FEB1FBFCF300FB1E550CFBAC
:10174C00131109FB05F50091B5FBF0F55849CDE9EE
:10175C0001E52046FFF74CFF97E706F00805AFE7D9
:10176C00BAF1010F06D1002F65D1049B002B7CD060
:10177C0000250CE0002FF8D04E485DE04E484F4954
:10178C003B4622461CF070FA049B002B69D0DFF814
:10179C003081DFF83091049F3146102F204628BF4E
:1017AC001027FFF737FF4FF0000A554546DC059B25
:1017BC0049461A782046FFF71BFF4FF0010A1AF032
:1017CC00070F03D141462046FFF712FF57453CD97E
:1017DC00059B494613F80A202046FFF709FF0AF13A
:1017EC00010ABAF1100FEAD1374920464FF0000A2E
:1017FC00FFF7FEFE5246059B9A5C344B995C11F048
:10180C00970F08BF2E2232492046FFF7F1FE0AF14E
:10181C00010ABAF1100F1DD01AF0070F03D141467F
:10182C002046FFF7E5FE57455246E4D84146204690
:10183C00FFF7DEFEEBE720485D46A0E74146204679
:10184C00FFF7D6FE0AF1010AAFE722492046FFF75F
:10185C00CFFEC4E7059B3B440593049BDB1B049321
:10186C0099D1BBF1000F7FF442AF204609B0BDE81F
:10187C00F04F1DF05BB8074A05492046FFF7B8FE4C
:10188C0038E700BFF2BF0200F6BF02009CAA0200BC
:10189C003BD70200EDBF0200B0AA02001BC0020041
:1018AC0021C0020025C00200804800207C48002096
:1018BC00FFBF020089E9010053E901007D28000007
:1018CC0032C002002AC0020034C00200DF1F030035
:1018DC0036C0020030C002002DE9F0410F884B6881
:1018EC008E6886B005460C469046C7F382175BB1EE
:1018FC00144A9B1A43F3CF01002920DB2078C0F354
:10190C00C200FFF789FD03462146608851F8102B71
:10191C000197C2F34A22002A01EB0204C0F30B1018
:10192C0008BF00210022CDE90408CDE90214009281
:10193C0031462846FFF77CFE06B0BDE8F081002357
:10194C00E2E700BF98A9020073B542F20F738B4215
:10195C0028BF0B4605680F4A0446052168461BF054
:10196C00BFFE63680C495B6806460B2228461CF0D8
:10197C00D0FF63683246694628465B681CF0C9FF95
:10198C00636806495B681B2228461CF0C2FF02B044
:10199C0070BD00BF2A19030055C0020039C00200F7
:1019AC00074A00210123904206D8064A01B90123B7
:1019BC001360054B1860704740085B000121F2E78B
:1019CC0040420F007C48002080480020014B01223F
:1019DC001A70704726A80020014B00201960704730
:1019EC0098480020024B034801221A701CF09EBF3D
:1019FC0027A80020E0AA02000148FFF7A5BF00BFFE
:101A0C00E0AA020010B5064B18680C46FFF73AFB2B
:101A1C0021460346BDE8104002480F22184700BF7C
:101A2C0098480020E0AA020010B9074B18707047C4
:101A3C00064B1B781BB141F2883028F0BEBCA420A9
:101A4C0000211BF0B9BB00BF26A8002027A800204E
:101A5C002DE9F843DFF874901D4F80460E460424A0
:101A6C0099F8005095B91AF06DFD2846324641465A
:101A7C001AF01AFD05461AF06FFDE5B101233B7013
:101A8C0099F8003073B93046BDE8F88332464146C8
:101A9C0000201AF009FD0546EFE72046FFF7C4FFCA
:101AAC00651E2C4600201AF043FD0028EBD03B7835
:101ABC00002BF2D1E7E73B78002BE4D0013C204629
:101ACC00FFF7B2FF3B78002BCAD1DCE727A8002038
:101ADC0026A80020014B002019607047B048002058
:101AEC00024B034801221A701CF020BF39A80020B9
:101AFC000CAB02000148FFF727BF00BF0CAB020084
:101B0C0010B5064B18680C46FFF7BCFA2146034685
:101B1C00BDE8104002480F22184700BFB048002013
:101B2C000CAB0200F8B5074F0D4604464618B442FC
:101B3C0001D12846F8BD14F8011BBB6801485B684D
:101B4C009847F4E710A80200014910220A60704778
:101B5C0010ED00E072B6404080F31188BFF36F8F38
:101B6C00BFF34F8F30BF62B6BFF36F8F704700BFAC
:101B7C0072B6494081F31188BFF34F8F20BF80F3B9
:101B8C00118862B6704700BF2DE9F047814600AF5F
:101B9C000C4600294CD06E468AB0D1E90012A368DD
:101BAC006D462748A8464FF0050AC5E90501C5E969
:101BBC00072348F810AF2348424600234FF4215125
:101BCC00FFF74CFCB546D4E903126369AD461E48D9
:101BDC00C5F810A0C5E90501C5E90723194800237C
:101BEC0042464FF42151FFF739FCB54688B0E36902
:101BFC006D46164AA8464FF0030AC5E9052348F876
:101C0C0010AF1048002342464FF4C251FFF726FC98
:101C1C00B546A369AD460E4AC5F810A0C5E9052323
:101C2C000848002342464FF4C251FFF717FCB54653
:101C3C00214648461AF096FCBD46BDE8F08700BF29
:101C4C00ABC0020008AA0200DAC0020009C10200FF
:101C5C0018C1020040B2002807DB044A41090123E5
:101C6C0000F01F00834042F82130704700E100E093
:101C7C0040B200280CDB4309064900F01F0020335A
:101C8C000122824041F82320BFF34F8FBFF36F8FA7
:101C9C00704700BF00E100E0054B420900F01F0057
:101CAC0053F82220012303FA00F01040704700BFC4
:101CBC0000E100E040B20028A8BF00F1604001F153
:101CCC000101B8BF064B4FEA4111ACBF00F56140B2
:101CDC0000F00F00C9B2B4BF195480F8001370475C
:101CEC0014ED00E030BFFFF7FDBF00BF0B4A08B595
:101CFC000B4B22F07F029A60BFF34F8FBFF36F8FB5
:101D0C00D3F8882022F47002C3F888201AF0E8FC7B
:101D1C001BF0D2FA00F00CFC1AF034FD00000000AD
:101D2C0000ED00E0094A0A49936809689967094976
:101D3C0058674B6843F080534B60002383F3118842
:101D4C00BFF36F8F9368986F704700BFC0A70020D8
:101D5C0040BA020000ED00E015498A684FF03000EF
:101D6C001044EFF3098C80E8F01F202080F31288D8
:101D7C00BFF36F8F0F4F4FF000664A698A603E6069
:101D8C004FF07004141920680B4C2060506F002326
:101D9C00536780F3118804B5104600F077FCBDE85A
:101DAC00044002F1300090E8F01F8CF30988704772
:101DBC00C0A7002004ED00E0B44800201EF0040F82
:101DCC000CBFEFF30880EFF30980816911F8021C56
:101DDC000229FFD001B51CF0E0FD01BD42F8203C0A
:101DEC00009B42F81C3C0A49019B42F8183C029BA0
:101DFC0042F8143C21F001014FF0807342F8043C8E
:101E0C0042F8081C0023203A02654367704700BF64
:101E1C00E10C0000094A0346906870B113F1160FEB
:101E2C00006E05D0A0F140029A4205D8834203D23D
:101E3C00814228BF0020704700207047C0A70020B7
:101E4C0008B514460A4A0B4B9060026F1A600D4697
:101E5C0000F01CFC204685F30988002163B681F351
:101E6C001188BFF36F8F00220023FEF733FF00BFF2
:101E7C00C0A70020B448002001B5EFF30580A0F105
:101E8C0010004FEAC0000449014409C99847BDE855
:101E9C00014002490847000060A80200091F000029
:101EAC00114B124A2DE9F041D518DFF84480013D61
:101EBC00B5FBF3F55D430F4B08EB0304013CB4FB9E
:101ECC00F3F403FB04540E1B07460B49304628F071
:101EDC0007FC701942460021083E28F029FC3E6799
:101EEC0004F10800BDE8F0810100000000000000D2
:101EFC00040000000400000048AA0200044B99688A
:101F0C005869884203D003494FF080520A607047E9
:101F1C00C0A7002004ED00E02DE9F04186B0064694
:101F2C0000AF0D46474B7B6102244FF4825146486B
:101F3C003C6107F110021CF03FFD444B9B6AD90435
:101F4C006DD5434B4048C7E9044307F110024FF4E9
:101F5C0082511CF031FD17203C4B9B6A1A050BD5A6
:101F6C003C4B7B61022338483B6107F110024FF474
:101F7C0082511CF021FD1820344CA36A9B0523D5FB
:101F8C00E846354B7B6102232F483B6107F1100279
:101F9C004FF482511CF010FDA36BA26A100412D5F1
:101FAC0088B06A462D492848C2E90513032342F834
:101FBC00103F4FF4C2511CF0FFFCC5461EB1A36A82
:101FCC0023F40043A3621920204B9B6A59050BD5BF
:101FDC00234B7B6102231C483B6107F110024FF439
:101FEC0082511CF0E9FC1A20184B9A6AD20518D5BC
:101FFC001C4B7B61022314483B6107F110024FF428
:10200C0082511CF0D9FC1B20104A936A43F47F4385
:10201C009362183700232B70BD46BDE8F081162063
:10202C009AE79B6A9B04EFD50F4B7B610223064812
:10203C003B6107F110024FF482511CF0BDFC1C20D7
:10204C00E2E700BF46C1020008AA020000ED00E072
:10205C005CC102006DC1020080C1020099C1020086
:10206C00AEC10200C9C10200E1C1020010B586B0C8
:10207C00364B3748059304AA02244FF4825104943A
:10208C001CF09AFC334B9B6A9A015DD5324B30485D
:10209C0004AA4FF48251CDE904431CF08DFC1E20A0
:1020AC002C4B9B6ADB010AD52C4B2948059304AABF
:1020BC0002234FF4825104931CF07EFC1F20254B0D
:1020CC009B6A1C030AD5264B2148059304AA0223BC
:1020DC004FF4825104931CF06FFC21201D4B9B6A22
:1020EC0059030AD51F4B1A48059304AA02234FF42F
:1020FC00825104931CF060FC2220164B9B6A9A03BD
:10210C000AD5194B1248059304AA02234FF48251A5
:10211C0004931CF051FC23200E4B9B6ADB030AD565
:10212C00124B0B48059304AA02234FF482510493DB
:10213C001CF042FC2420074A936A6FEA03436FEABF
:10214C001343936206B010BD1D20A9E710C2020014
:10215C0008AA020000ED00E028C202003BC2020007
:10216C0055C2020073C2020098C20200B2C2020041
:10217C002DE9F04786B0814600AF8A469046514B18
:10218C007B61022450483C6107F110024FF48251EC
:10219C001CF012FC4D4B9B6ADE0645D54C4B4A4855
:1021AC00C7E9044307F110024FF4825111241CF0CB
:1021BC0003FC464B9B6A1D070BD5464B7B610223E8
:1021CC0041483B6107F110024FF4825112241CF07C
:1021DC00F3FB3E4DAB6A980728D56C463E4B7B61B2
:1021EC0002233B614FF48251374807F110021CF077
:1021FC00E3FB6E6BAB6A190660D588B06A46374B49
:10220C003148C2E90536032342F8103F4FF4C2515E
:10221C001CF0D2FBA546BAF1000F03D0AB6A23F039
:10222C008003AB62132403E01024C2E76FF01506A1
:10223C00264B9B6ADA070BD5294B7B61022322487C
:10224C003B6107F110024FF4825114241CF0B4FBD3
:10225C001E4B9B6A9B060BD5224B7B6102231A48B3
:10226C003B6107F110024FF4825115241CF0A4FBC2
:10227C00164B9A6AD50602D49A6A90070AD55B68FF
:10228C00190507D549463046FFF7C4FD10B180F358
:10229C00098802240D4B9A6A920642BF5A6A22F4AC
:1022AC0000525A629A6A42F0FF029A622046002358
:1022BC00183788F80030BD46BDE8F0876FF015067A
:1022CC00B0E700BFDDC2020008AA020000ED00E08A
:1022DC00F3C202006DC1020026C302003EC302001D
:1022EC0054C30200E1C102002DE9F0437A4B8BB0DC
:1022FC00D3F8048000AF0446C8F30805002686F323
:10230C001188BFF36F8F02F07F43B3F17F4F0ED173
:10231C0002F00C03082B19D1704BFB61022370489F
:10232C00BB6107F118024FF482511CF045FB0026EB
:10233C0034460023FB71EB1E092B00F2AD80DFE865
:10234C0003F00AA0A39CABABABABABA610074CBF86
:10235C000C460126EDE7E946624BFB614FF00208A3
:10236C0007F118025E48C7F818804FF482511CF030
:10237C0023FB0023584DFB71EB6A9A070BD55A4B84
:10238C00C7E90683564807F118024FF482511CF036
:10239C0013FB002342E0EB6A002B01DA534BEFE70F
:1023AC00EB6A5B00F5D5524B4D48C7E9068307F144
:1023BC0018024FF482511CF0FFFA6B69A26943F4C6
:1023CC0080736B61BFF34F8FBFF36F8F6B6932F804
:1023DC00022C23F480736B61BFF34F8FBFF36F8FAD
:1023EC004DF602739A4209D0AB6ADBB2002B37D0A0
:1023FC00FA1D01212046FFF7BBFE40E088B02368A0
:10240C006A463C493648C2E90513032342F8103F9B
:10241C004FF4C2511CF0D0FA2368CD46FA79DAB9E0
:10242C0007F1080504F1200C206861682A4603C2F4
:10243C00083464451546F7D17A6A002E47D0C2F3AA
:10244C00080121B96FEA52226FEA42227A6207F13F
:10245C0008011846FFF798FB2C37BD46BDE8F08302
:10246C00AB6A13F47F4F04D0F91D0120FFF754FD24
:10247C0005E0AB6AB3F5803F8BD3FFF7F7FD03465E
:10248C00CCE7FA1D0021B5E7F91D0020EEE71A4B49
:10249C00FB610223BB6175E7184A194B18F4F87FEE
:1024AC00E8468AB018BF13466A4616490C48C2E97A
:1024BC0005134FF400731384103D134BD5614FF487
:1024CC00115142F8103F1CF077FAC54661E722F42F
:1024DC00FF7222F00102B9E700ED00E0A1C3020097
:1024EC0008AA0200CCC30200E3C3020004C4020029
:1024FC0012C4020031C402004DC4020088C30200A1
:10250C0073C3020071C4020004000001024A536943
:10251C0043F010035361704700ED00E0EFF30880C7
:10252C00EFF3098101B57246FFF7DEFE01BD00BF76
:10253C00044800232021C2180133272B82F80013F2
:10254C00F9D1704700E100E0002080F31488BFF35C
:10255C006F8FFEF7E7FC00200D490860BFF34F8F2B
:10256C000C4880F3088800F03DF8202080F3118897
:10257C0009484FF40461401880F30988EFF3148084
:10258C000221084380F31488BFF36F8FFFF7AEFB73
:10259C0094ED00E080C20020C0B00020BFF34F8F4C
:1025AC000549064BCA6802F4E0621343CB60BFF3E3
:1025BC004F8F00BFFDE700BF00ED00E00400FA05FF
:1025CC000749D1F890200023C2F307221846934202
:1025DC0000DB7047C1F89830C1F8A0000133F6E772
:1025EC0000ED00E008B572B6002383F31388FFF703
:1025FC00E7FF144B4FF0FF32C3F88020C3F8842060
:10260C00C3F88820C3F88C20C3F89020C3F894201A
:10261C00C3F89820C3F89C20C3F88021C3F8842108
:10262C00C3F88821C3F88C21C3F89021C3F89421F6
:10263C00C3F89821C3F89C2162B6BFF34F8FBFF348
:10264C006F8F08BD00E100E0084B9B6883420BD103
:10265C00EFF3058343B1064B5A6842F080525A603F
:10266C005A6A22F400425A621AF0C6BDC0A7002072
:10267C0000ED00E0024B034A0348012100F092B840
:10268C0000000120000000201CAB0200026E054B74
:10269C00403A1A60044A4021C3E90112184601214C
:1026AC0000F08AB8B848002000000B152DE9F04165
:1026BC00DFF8B4E09C4600AF154600238B421ADAD3
:1026CC004468002C4DD0BCF1000F1DD0661E344266
:1026DC0015D06C4688B06A462449C2E90513032319
:1026EC0042F8103F224800234FF4C251FEF7B6FEC9
:1026FC006FF01505A5462846BD46BDE8F0811F2C98
:10270C00E7D902681642E4D1202C026886685FFA89
:10271C0085F814D9B4F1004F13D8013CB4FA84F401
:10272C00C4F11F046400B8F1070F46EA04060AD985
:10273C006C4688B06A460F4BC2E90535CFE70824D2
:10274C00F1E73E24EFE722F01F022A4342F0100289
:10275C0046F00106CEF89850CEF89C200135CEF804
:10276C00A06001330C30A9E700ED00E088C4020042
:10277C0000AA0200ABC40200044B0522C3F894204B
:10278C00BFF34F8FBFF36F8F704700BF00ED00E0BA
:10279C00BFF35F8F024B0022C3F89420704700BF39
:1027AC0000ED00E010B5034C01232278FFF77EFF0B
:1027BC00207010BD3AA8002008B5094A00231278F1
:1027CC00FFF774FF10F1160F03D0064B00220728F9
:1027DC0000DD08BDC3F89800C3F8A0200130F6E76F
:1027EC003AA8002000ED00E014490868082810B54C
:1027FC0021D8FFF7CDFF124C49680022904201F11D
:10280C000C0105D10F4B1870FFF7B6FF002010BD5F
:10281C00C4F8982051F80C3C23F01F03134343F0E9
:10282C001003C4F89C3051F8043C43F00103C4F885
:10283C00A0300132E2E74FF0FF30E8E728AB0200AE
:10284C0000ED00E03AA8002008B5024B1B68984741
:10285C00002008BDC4480020034B044A186093783C
:10286C0043F0020393707047C44800200800002016
:10287C00F0B587B007460E46144600211022684674
:10288C001D4627F055FF02238DF802302A46054BD2
:10289C00019321466846CDE904761AF075FF07B01E
:1028AC00F0BD00BFCBE9010008B504481BF034FAB9
:1028BC00404080F311884FF0020002DFD1C40200C7
:1028CC0008B50649064821F00701C1F1005202F58E
:1028DC0080321BF050FC002008BD00BFD3C200208A
:1028EC00C0C20020044A0123C2F840354FF0804298
:1028FC000020C2F87835704700E0014020B1034B4E
:10290C00800143F001031847704700BF70AA020012
:10291C00084B70B5C31A0D4607499B100446594322
:10292C00064840221CF072F82B4601462046BDE8B2
:10293C0070401847DC480020B76DDBB6E8A70200F2
:10294C0073B50C4C0C4A4023041B00930D460B46EC
:10295C000A49A4106143064609481CF083F8011E7D
:10296C0005DA30462B4602B0BDE87040184702B07D
:10297C0070BD00BFDC480020DBEA0100B76DDBB6A0
:10298C00E8A7020010B54FF02003EFF3118483F396
:10299C001288BFF36F8F074A136823F00201DB071D
:1029AC00116002D401201CF039FB84F31188BFF3B1
:1029BC006F8F10BD2C490020002270B501210446F8
:1029CC001046FFF777F90F4801F0F4FD0E4B9842D3
:1029DC0015D11CF016FB26690C4930461BF058FC2F
:1029EC0000280BDB012535642469084904F11C001F
:1029FC001BF04EFC002801DBE564002070BD6FF07D
:102A0C000400FBE7512A00000000AD0B48AB0200AC
:102A1C0070B501460C2309484B43C418D4E90E5633
:102A2C00403300221844A2631BF0DDFF2DB1324667
:102A3C002B460348BDE87040184770BDDC480020A9
:102A4C00E8A7020010B1012804D07047034B1B6C9F
:102A5C005B0701D1FFF7DCBF704700BFDC480020EB
:102A6C0008B54FF02003EFF3118183F31288BFF305
:102A7C006F8F124A136843F002001060DA0708D413
:102A8C0081F31188BFF36F8F0120BDE8084001F07E
:102A9C00A1BD4FF08043D3F80C24D3F80C34DB07E2
:102AAC00EED507481BF09FFF81F31188BFF36F8FA2
:102ABC000020BDE80840FFF7ABBF00BF2C49002049
:102ACC001C4900201FB500220123CDE90223094A2D
:102ADC00CDF800D06B46CDF804D01BF0F1FF0028E8
:102AEC0005DB4FF48042002368461AF05DF805B010
:102AFC005DF804FBF3EA010010B5074C23782BB901
:102B0C004FF4A57027F059FC01232370BDE8104049
:102B1C00002001F05FBD00BF3BA800202DE9F04173
:102B2C003849BFF35B8F0746012251E8003F41E86B
:102B3C0000200028F9D1BFF35B8F33B932493348F9
:102B4C004B60CB608A601BF0B6FB7B1E012B2BD835
:102B5C00012F07D14FF08043D3F81C3403F003034B
:102B6C00012B21D027F03DFC0546F8B9284B1B78EA
:102B7C00E3B14FF080430222C3F808230646DFF886
:102B8C0094804FF08044D4F81824D4F81834D2032D
:102B9C0016D503F00303012B01D0012F10D15DB327
:102BAC0086F31188BFF36F8FBDE8F0814FF02003DF
:102BBC00EFF3118683F31288BFF36F8F0125DEE7E5
:102BCC00ADB13046FEF7D4FFD4F81835002BDAD16E
:102BDC00D4F80421002AD6D0C4F80431D4F8043136
:102BEC000123C4F81835C8F88031A360CBE7002165
:102BFC0021201AF0E1FAE7E74FF080430222C3F8F4
:102C0C000423D1E7D8480020C8480020F848002009
:102C1C0060AD002000E100E008B5074827F0D2FBCA
:102C2C0038B10648FFF718FE0448FEF74DF80020AF
:102C3C0008BD6FF01200FBE710A802004D2C00003D
:102C4C000A2838B5074D044604D1AB680D215B68E2
:102C5C0028469847AB6803485B68E1B29847204622
:102C6C0038BD00BF10A802007FB5084B05930223A6
:102C7C0004930748002304AA4FF48251FEF7EEFB9D
:102C8C006FF0850007B05DF804FB00BF2BC5020098
:102C9C00D0A902007FB5084B059302230493074883
:102CAC00002304AA4FF48251FEF7D8FB6FF0850085
:102CBC0007B05DF804FB00BF58C50200D0A90200A4
:102CCC0070B5456886B00446286827F07BFB70B960
:102CDC008F4B05930223049300238E4804AA4FF4D0
:102CEC008251FEF7BBFB6FF0120006B070BDE868B6
:102CFC0018B127F067FB0028EAD0286AF0B105F17B
:102D0C00200627F05FFB034620B9834A0592022276
:102D1C000492E2E74FF4B01130461BF0E7FE68B1C5
:102D2C007E4B0593022304937A48002304AA4FF4A4
:102D3C008251FEF793FB6FF00400D6E7A86970B1DF
:102D4C00183527F03FFB034608B9754ADEE74FF408
:102D5C00003128461BF0CAFE08B1724BE1E76568EA
:102D6C002B6A002B00F0CC802120002120351BF099
:102D7C00BFFF012128461BF0FDFEC52000211BF0E2
:102D8C00B7FF284600211BF0F5FE4FF424700021FC
:102D9C001BF0AEFF20461BF0A2FF6568042305F173
:102DAC003602DF2128461BF0F9FE6068052305F189
:102DBC003102B2211BF0F2FE002360688DF8003066
:102DCC006A460123BA211BF0E9FE0F2360688DF8D7
:102DDC0000306A460123C6211BF0E0FE95F829302D
:102DEC0060688DF800306A460123B7211BF0D6FECF
:102DFC0095F828308DF80030606801236A46BB21B5
:102E0C001BF0CCFE95F82A30E3B1012660688DF8F2
:102E1C00006033466A46C2211BF0C0FE95F82B3089
:102E2C0060688DF800306A463346C3211BF0B6FE4D
:102E3C0095F82C308DF80030606833466A46C42112
:102E4C001BF0ACFE6068022305F13A02D0211BF0A6
:102E5C00A5FE95F82D3060688DF800306A46012388
:102E6C0036211BF09BFE95F82F3060688DF80030F2
:102E7C006A4601233A211BF091FE95F830306068C8
:102E8C008DF800306A460123C0211BF087FE95F8AF
:102E9C002E3060688DF800306A46012326211BF025
:102EAC007DFE00231A46606821211BF077FE6068C6
:102EBC000E2305F13C02E0211BF070FE60680E232E
:102ECC0005F14A02E1211BF069FE6068022305F15D
:102EDC005802B0211BF062FE6068032305F15A0210
:102EEC00B1211BF05BFE002360681A4611211BF018
:102EFC0055FE40F65D7000211BF0FAFE0020F4E652
:102F0C0028461A4601211BF049FEA4203FE700BFCA
:102F1C007CC50200D0A9020091C50200ADC502001B
:102F2C00CAC50200E9C5020030B54068057B01F056
:102F3C001F04B2F5001F85B044EA451405D12046A4
:102F4C0001F030FE002005B030BD0025B2F5800F39
:102F5C00CDE9025514D1B3F1007F0CBF0423052336
:102F6C008DF808300023194602AA204601F04EFCC9
:102F7C00214B984239D10121204601F0C7FDE1E7F0
:102F8C00B3F1C06F26D0B3F1007F14BF012302232D
:102F9C008DF80830836823FA01F111F00101E1D1B9
:102FAC00B2F1A07FDED104F01F03620903F5E073D8
:102FBC001ED14FF0A04252F82330DB07D2D40DF1D2
:102FCC0007052946204601F04DFD0C4B984203D0D5
:102FDC000395C7E70323DBE7284601F091FD064B79
:102FEC009842F5D06FF00B00ADE76FF01500AAE733
:102FFC0051F82330FFDE00BF0000AD0B0400AD0B19
:10300C0010B501F06DFD044668B901F041FD084BA7
:10301C0098420AD10748214601F01EFD224605219F
:10302C000620FEF747FE002010BD6FF00400FBE702
:10303C000000AD0B45300000430970B507D10B4BB8
:10304C00596821B101250C68094E854001B970BD44
:10305C008A682A4002D04B68304698471CB12368D6
:10306C0021461C46F2E72346FAE700BF3049002010
:10307C00FCA702002DE9FF4147683B7B01F01F05CF
:10308C0045EA43150E4628460DF10701144601F09A
:10309C00E9FC14F4403F80460DD1284601F0A8FD10
:1030AC003D4B984503D19DF8070001F023FD00200E
:1030BC0004B0BDE8F0810023194602AA2846CDE9E8
:1030CC00023301F0A3FB344B984214D1804503D159
:1030DC009DF8070001F00EFDA3034ED540F2063318
:1030EC002340B3F5837F1AD00DD8062B18D005D802
:1030FC00B3B1022B33D06FF01500D9E7B3F5807F55
:10310C00F9D101230CE040F20222934229D0B3F50D
:10311C00407F28D0B3F5007FEDD1022300E00723D8
:10312C008DF8083084F48033C3F30043E0068DF847
:10313C00093054BFC4F34013032321038DF80A3024
:10314C0013D57A680123B340C2F80835002202A9CE
:10315C00284601F00BFC104B9842A8D0CBE7042377
:10316C00DEE70523DCE70323DAE7620341BF012333
:10317C007A68B340C2F80C35E8E7E3064FF0000379
:10318C0054BFC4F3401403241A4602A928468DF8F0
:10319C00084001F03BFBDEE70000AD0BF0B5524DF3
:1031AC0000EB8101814201D10020F0BD046804F0E4
:1031BC007F03C4F343267F2B4FEA144408BF4FF020
:1031CC00FF33192C7ED8DFE804F00D13191C1F25D2
:1031DC001C7D7D7D7D345D7D7D7D7D7D7D7D7D7DDD
:1031EC006074777AC2F80C355F1C57D10430D9E77C
:1031FC00C2F814355C1CF9D0002458E0C2F808352C
:10320C00F2E7C2F81035F5E75F1CC2F80835EDD0CF
:10321C00002404E05C1CC2F80C35E7D001245F09E3
:10322C0053D101274FF0A04C07FA03FECCF80CE564
:10323C0008E0C2F80835002EDCD15C1CD6D0002486
:10324C0027460626D0F800E00EF4005CBCF1000F17
:10325C001CBF0124002703F01F0C5B093DD14FEA72
:10326C008C0C0CF1A04CCEF3C11EDCF800372B40BB
:10327C0043EA8E0343EA06233B4343EA4403CCF878
:10328C000037B3E7C2F80C35D5E7C2F860355F1CE0
:10329C000468ABD0C4F38034002CBFD05C0918D1C7
:1032AC0001244FF0A04704FA03FCC7F808C52746D1
:1032BC00C8E7C2F86435EAE7C2F86835E7E7C2F850
:1032CC006C35E4E76FF085006FE70023C3F80C352D
:1032DC00FFDE0023C3F80835FAE70CF5E07C002389
:1032EC0053F82C30F4E700BFF0F8FCFF70B54B79C5
:1032FC00012B20D18B79032B1DD1CD790DB1012D53
:10330C0019D10A7912B1022A15D10E220B68446820
:10331C00B3F5164F266864D02BD8B3F5165F63D07F
:10332C0014D8B3F5966F61D008D8B3F5967F60D0FA
:10333C00B3F5167F60D06FF0850051E0B3F5166FD2
:10334C005DD0B3F5965FF6D1374B3CE0B3F5E14F6A
:10335C0058D007D8B3F5615F56D0B3F5964FEAD184
:10336C00324B30E047F61224A342E4D14FF4000371
:10337C0029E0B3F5613F49D013D8B3F5963F48D057
:10338C0009D84DF6C024A34245D0B3F5614FD2D134
:10339C004FF46B0317E0B3F5E13FCCD14FF0EB7377
:1033AC0011E0B3F5612F39D008D8214CA34238D0A5
:1033BC00B3F5E12FBFD14FF0E86304E01D4CA342FD
:1033CC00B9D14FF080530469C6F8243543681B68A3
:1033DC002A43C3F86C2503C9231D83E8030000208E
:1033EC0070BD4FF41D03EEE7134BECE74FF49E2337
:1033FC00E9E74FF4A033E6E74FF41C33E3E74FF46F
:10340C001D23E0E70D4BDEE70D4BDCE74FF06C7353
:10341C00D9E70C4BD7E74FF46503D4E74FF0706353
:10342C00D1E74FF08063CEE700B0130000A04E0050
:10343C0090D0030040420F000050270000C07500E0
:10344C0000F03A0000903A012DE9F043002287B0D9
:10345C00804601210220FEF72DFC0220FEF7FAFB2C
:10346C00D8F80470D8F810603C680021C4F8001536
:10347C00C6F80080D7F80C906A4648461BF09DFCB5
:10348C00051E25DB009BD9F8002019791868FFF779
:10349C0085FE051E1CDB311D4046FFF727FF054648
:1034AC00B0B97B68990723D506F1180001F08AFCA6
:1034BC00234B984210D0234B0593022304932248AC
:1034CC002B4604AA4FF482516FF00405FDF7C6FF9A
:1034DC00284607B0BDE8F083307E04F10C0204F5F9
:1034EC0090711BF084FD337E0120984000F0FAFFB0
:1034FC000823C4F800353B7A53B9C4F81031D4F81A
:10350C0010317369C4F834350123C4F8383523609D
:10351C007B689A075CBF4FF48073C4F804337B68F4
:10352C00DB0644BF4FF48003C4F804333369C4F89A
:10353C0044350023C4F848350123A360E360C7E792
:10354C000000AD0B2FC6020020AA0200F8B50446FD
:10355C0007690D4626F045FFB0B92E4B1B789BB181
:10356C00642660681BF05FFC00BB01201BF03DFD76
:10357C00013EF6D10021212019F01EFEF0E786F362
:10358C001188BFF36F8FF5E74FF02003EFF311862F
:10359C0083F31288BFF36F8F606831461BF043FCD6
:1035AC0090B986F31188BFF36F8FEDE74FF02003CE
:1035BC00EFF3118683F31288BFF36F8F6068314687
:1035CC001BF031FC0028DAD03B691D706268386949
:1035DC001368C3F844050120C3F848050020C3F85C
:1035EC002001D3F82051C3F858015268D3F8580180
:1035FC00D20608D5626812680820C2F800054FF49C
:10360C008002C3F8042301229A6081F31188BFF36E
:10361C006F8FF8BD60AD00202DE9F04387B0456891
:10362C000669D5F8208000AF3A46002140461BF0D1
:10363C00C4FB041E1EDB3B68D8F8002019791868FF
:10364C00FFF7ACFD041E15DB686A441C25D000F0A6
:10365C000DFB10F1130F044611D1364B7B61022385
:10366C0035483B6107F110024FF482511BF041FCCD
:10367C006FF0120420461C37BD46BDE8F083411D97
:10368C000BD12E4B7B6102232B483B6107F11002BF
:10369C004FF482511BF02DFCECE7EB699847B568B1
:1036AC004FF00108D6E9023203EBC2039D4204D36A
:1036BC0030461BF035FC0024DCE7286826F082FE3F
:1036CC00B0B92B686C468AB019682B796A461C48CD
:1036DC00D3614FF4007313841A4BC2E9050142F80D
:1036EC00103F15484FF411511BF003FCA546BFE7E2
:1036FC0028682979EB88D0F810C0D0F80890DCF84D
:10370C000040DA0754BF43F4B01383F4D01323F40E
:10371C00801208FA01FEDB074CBF44EA0E0424EACF
:10372C000E04CCF80040D9F800309847041EA1DBF9
:10373C000835B7E76CC6020018AA020097C602004B
:10374C00B4C60200040000017FB5054640682A6932
:10375C00936C116DE3B9A9B1546C91651E460B467F
:10376C00D26C0292CDE90046EAB1002918BF194685
:10377C0003910022694601F053FC0D4B984214D082
:10378C006FF00401286904B0BDE870401BF0F2BB77
:10379C00546C11B18B4228BF0B46002C936514BF9F
:1037AC001E460026DCE71146E2E704B070BD00BF00
:1037BC000000AD0B10B5037886B00C46002B5ED123
:1037CC008A6D42B94B6D18696FF0730106B0BDE894
:1037DC0010401BF0CFBB8B6C5BB19A421ED9294BAE
:1037EC0005932948022304AA4FF4825104931BF039
:1037FC0080FB236DA26D5BB19A4227D9214B0593B7
:10380C002148022304AA4FF4825104931BF071FB4C
:10381C00606D06B0BDE81040FFF796BF9B1A8B6435
:10382C0073B94B6B08334B638B6B013B8B6301F1AF
:10383C00480204F1340038311BF048FB6064D8E7CF
:10384C004B6C002BD5D013444B64D2E79B1A2365E9
:10385C007BB9E36B0833E363236C013B236404F112
:10386C00500204F1400104F13C001BF02FFBE0641A
:10387C00CEE7E36C002BCBD01344E364C8E706B06F
:10388C0010BD00BFD8C6020018AA02002DE9F04FE7
:10389C008BB000AFC7E9023243687B608B88046948
:1038AC009A040646884636D44FF0FF324FF0FF3369
:1038BC0004F1100019F078F9C4F80480D6F81090CF
:1038CC00D6F804A099F85D3023B1D9F800309845AA
:1038DC0000F0E880B8F804C01CF4006F22D0B94B9B
:1038EC007B620223B8483B6207F120024FF48251FD
:1038FC006FF085051BF0FDFA23689B8813F40053C9
:10390C0004D1636004F1100019F02AF928462C3711
:10391C00BD46BDE8F08FA369002BC5D16368994201
:10392C00C2D1CBE71CF0010F15D06D4688B03368BF
:10393C006A46A649A448C2E905134FF40073938361
:10394C00A34B42F8103F4FF4E2511BF0D2FAAD46B4
:10395C006FF01505D0E71CF0080F0BD09D4B7B6268
:10396C00022399483B6207F120024FF482511BF06D
:10397C00C0FAEDE7CCF34513082B01D0964BEEE7DC
:10398C00D8F80050954B9D4201D8954BE7E70AF1CA
:10399C00080BBBE80F0007F1100EAEE80F00DBF8C8
:1039AC000030CEF800308F4B9D425AD98E4B9D4241
:1039BC005AD98E4B9D425AD98D4B9D425AD98D4B1B
:1039CC009D425AD98C4B9D422CBF4FF000454FF075
:1039DC0080451CF0020FBD610CF0040350D0002B8D
:1039EC0014BF032302233B77CCF300137B77DAF865
:1039FC000030D3F808251CF0020FCCF340014FEA3D
:103A0C0052104FF001033FD1002840F02781934022
:103A1C004FF0A042C2F80C3599F85D302BB15046EE
:103A2C0001F0C6FA002389F85D304B46734A07F162
:103A3C001001504601F088FA714B98422DD06D461A
:103A4C0088B06A466F4BC2E90530032342F8103F39
:103A5C005D484FF4C2511BF04CFAAD466FF00405B3
:103A6C004AE74FF00075B4E74FF08065B1E74FF0CF
:103A7C000065AEE74FF08055ABE74FF00055A8E777
:103A8C00003B18BF0123AEE7002840F0EA809340CA
:103A9C004FF0A042C2F80835BEE7012389F85D302B
:103AAC00C9F80080012384F85C307B68586A431C99
:103ABC000ED000F005F974300AD1534B7B6202230F
:103ACC0041483B6207F120024FF484511BF011FA7C
:103ADC00FB68002B40F09C8063630023A36304F11C
:103AEC00480204F1380104F134001BF0EFF9BB6813
:103AFC006064002B40F09580E3630023236404F1A1
:103B0C00500204F1400104F13C001BF0DFF9E064C9
:103B1C0020680023236348B183683BB1012108303E
:103B2C001BF0EAF92368186926F047FC3046FFF7CA
:103B3C000BFE0022A06B134683427BD10023256C25
:103B4C001946A9427DD19342A04638BF13464FF483
:103B5C00FA5202FB03F558F8203B4FF4004C1B685B
:103B6C00B5FBF3F540F2E730C83500214FF47A721B
:103B7C000023E5FB0C01FCF7ABFA02460B46404672
:103B8C0019F012F8002863D0204B7B6202230E48F8
:103B9C003B6207F120024FF482511BF0AAF9002579
:103BAC007868A56501F004FA84F85D5030696FF00F
:103BBC0073011BF0DFF9404619F01EF86FF0730526
:103BCC009AE600BFF6C6020018AA020010C702004F
:103BDC000300000132C7020051C7020047E8010090
:103BEC0080C702008FD003001FA107003F420F00C7
:103BFC007F841E00FF083D0000127A00C1370000D0
:103C0C000000AD0BB1C70200D8C7020002C8020009
:103C1C00FB681B686363002B3FF45FAFFB685B685A
:103C2C005CE7BB681B68E363002B3FF466AFBB68C3
:103C3C005B6863E7616B01EBC301013349680A44BC
:103C4C007AE7E06B00EBC10001314068034478E790
:103C5C00256B15F1740F7FF44FAEA0E7C1F80C156E
:103C6C00FFDE0023C3F80835FAE700BF30B585B096
:103C7C0001238DF80430054602230DF107008DF861
:103C8C000830039000F03CFF0C4B984204460FD1D7
:103C9C00002302AA01A9284600F0B8FDA0420AD0D0
:103CAC009DF8070000F026FF6FF0040005B030BD52
:103CBC006FF01200FAE70020F8E700BF0000AD0B30
:103CCC00F8B506461BF00EFA00210546304600F00A
:103CDC001DFF730906F01F0429D1A40004F1A044B0
:103CEC00164BD4F80027134043F00C03C4F80037EC
:103CFC001BF068F905F18045074605F5C0452B68B2
:103D0C006BB10025304600F04DFFD4F800270B4B6B
:103D1C00134043F00403C4F800372846F8BD1BF0E9
:103D2C0051F9C01B0628EAD96FF07305EAE704F5D0
:103D3C00E074002353F82430FFDE00BFF0F8FCFFE2
:103D4C0070B5012383400E4ABFF35B8FDC4352E80E
:103D5C00001F01EA040542E80056002EF7D1BFF31C
:103D6C005B8F4FF4803282400648C0F80823BFF3C3
:103D7C005F8FBFF36F8F0B4214BF0120002070BD0B
:103D8C00404900200010014070B40E49D1E90034C4
:103D9C00D01AC31844F1000422F07F46C1E9003464
:103DAC00A6F50013B3F5400F09D2074B1B681A0A8E
:103DBC001B069C19054B42F10005C3E9004570BC7C
:103DCC0019F050BB28070020444900203007002080
:103DDC0011B3BFF35B8F0123104A834052E800CF2D
:103DEC004CEA030C42E800C10029F7D1BFF35B8F0A
:103DFC000B4A4FF480338340C2F80433094BBFF3B2
:103E0C005B8F1B68BFF35B8FC340DB0742BF064B66
:103E1C004FF40032C3F80021704700BF4049002026
:103E2C00001001403C49002000E100E00D4B1868F7
:103E3C00010A0006BFF35F8F0B4BD3F8043518183B
:103E4C0041F10001B3F5801F0AD2084BD3E90023DE
:103E5C00904271EB030303D210F1807041F1000129
:103E6C00704700BF4449002000100140300700207B
:103E7C002DE9F04F85B016461F469DF840A004462C
:103E8C00FFF75EFF0190FFF7D1FFB04271EB070324
:103E9C0054D23E4B301A67EB0101984271F100018C
:103EAC004FD23B4B03EB0413D3E902239F4208BFD1
:103EBC0096425ED037494FF4803804F1500508FA29
:103ECC0004F8AD00C1F848832046ADB21BF06EF883
:103EDC0026F07F4B05F1804504F5A87305F5883570
:103EEC00DC464FF003090293029A2CF07F4341F811
:103EFC002230C1F84483D1F80435274A6FF0020010
:103F0C00C01A604420F07F40904232D9286868B1D2
:103F1C00D1F804350393A3EB0B0020F07F40B0F5F0
:103F2C00000F26D920461BF041F8039BBAF1000F75
:103F3C0007D109EB030C09F10109D5E7BAF1000F20
:103F4C0009D06FF0150520460199FFF741FF28466F
:103F5C0005B0BDE8F08F0123104ABFF35B8FA3407F
:103F6C0052E8000F184342E800010029F8D1BFF3D2
:103F7C005B8F07490E98230101EB0412C8500F9B6D
:103F8C005360C2E902670025DDE700BF0100800035
:103F9C001807002000100140FDFF7F003C49002065
:103FAC007FB51C4C1C4BC4F80833C4F848331B4B6E
:103FBC0000254FF0FF304FF0FF31C4F80855C3E92E
:103FCC0002014FF48033C4F80433154B02264FF42E
:103FDC0000320121C4F804631120C3F880212A4661
:103FEC00FDF768FE1120FDF735FE0E4A0123A36094
:103FFC00236013600C4B0D4A0093CDE9015500234F
:10400C002846FFF735FF3046FEF788FD284604B0FA
:10401C0070BD00BF0010014003000F001807002006
:10402C0000E100E040490020953D0000FFFF7F00CB
:10403C002DE9F7432F4CD4F8043399070BD5D4F85A
:10404C00043143B12C4A0023C4F80431D4F80431B0
:10405C00136801331360D4F80433DA032AD5BFF3A1
:10406C005B8F264B53E8002F22F0010143E8001030
:10407C000028F7D1BFF35B8FD30702D4D4F84031BB
:10408C00C3B10025C4F84051D4F84031FFF7CEFE3F
:10409C004FF02003EFF3118283F31288BFF36F8F7D
:1040AC00174BD3E90267B042B94106D282F31188AB
:1040BC00BFF36F8F03B0BDE8F0834FF0FF384FF0C4
:1040CC00FF39C3E90289D3E900101D604FF4803336
:1040DC00C4F84833C4F84051D4F8403182F3118805
:1040EC00BFF36F8F0029E5D0009032463B4628463F
:1040FC008847DFE700100140444900203C4900207C
:10410C00180700201FB5431C23D0012823DD134AB8
:10411C00134B9042D4BF04461C46FFF787FE114B4D
:10412C000F49D3E90023801AB0F5000F28BF0024F3
:10413C0004448C4228BF0C46A2180B4900914FF046
:10414C000000CDE9010043F10003FFF791FE04B03C
:10415C0010BD034CE1E70124DFE700BFFEFF7F0049
:10416C00FFFF7F0028070020953D000008B5FFF7F2
:10417C005DFE024B1B68C01A08BD00BF280700205B
:10418C007FB5FDF787F8074B059302230493064888
:10419C00002304AA4FF48251FDF760F90020FEF7CA
:1041AC00FDF900BF4FC80200D8A902004FF07043C0
:1041BC0093F8E02F062A09D1D3F8E83FC3F3031391
:1041CC00033B042B02D8024AD05C70470020704796
:1041DC007BC80200024AD2F80034002BFBD0704797
:1041EC0000E0014010B51AF0F1FE40B14FF08053E1
:1041FC008E4AD3F82433C3F30423C2F84035FFF7B7
:10420C00D5FF10B18A4B8B4A5A671AF0DFFE48B1C2
:10421C004FF080534FF08042D3F84432C3F3423313
:10422C00C2F83C35FFF7C2FF30B1834AD2F8FC30FC
:10423C0023F08073C2F8FC301AF0C8FE40B14FF086
:10424C0080430022C3F80C21C3F81021C3F8382591
:10425C00FFF7ACFF20B14FF080430322C3F8A02539
:10426C00FFF7A4FF60B1754B0522C3F8102601229D
:10427C00C3F888260022C3F818263F22C3F8142658
:10428C004FF08053D3F83021511C09BF4FF07043CD
:10429C00D3F8343193F8E02FD3F8E83F08BFC3F3D9
:1042AC000313062A4DD1033B042B03D8644AD35C79
:1042BC00002B46D04FF08052624BD2F80414C3F856
:1042CC002015D2F80814C3F82415D2F80C14C3F82E
:1042DC002815D2F81014C3F82C15D2F81414C3F8FE
:1042EC003015D2F81814C3F83415D2F81C14C3F8CE
:1042FC004015D2F82014C3F84415D2F82414C3F88E
:10430C004815D2F82814C3F84C15D2F82C14C3F85D
:10431C005015D2F83014C3F85415D2F83414C3F82D
:10432C006015D2F83814C3F86415D2F83C14C3F8ED
:10433C006815D2F84014C3F86C15D2F84424C3F8AD
:10434C0070251AF043FE48B14FF080534FF0804275
:10435C00D3F8583203F04F03C2F8E43E1AF036FE9D
:10436C0048B14FF08043D3F80024D20744BF6FF01C
:10437C000102C3F800244FF08053D3F83021062AF1
:10438C0026D1D3F83431033B042B02D82E4AD35C0C
:10439C0063B12E4AD2F83C3743F48063C2F83C3701
:1043AC004FF08053D3F83031062B11D14FF080539E
:1043BC00D3F83431033B042B02D8254AD35C3BB1F0
:1043CC004FF01023D3F808224FF08043C3F8582540
:1043DC004FF01023D3F80022002A03DBD3F8043269
:1043EC00002B22DA1B4901234FF01020C1F80435B1
:1043FC001524FFF7EFFEC0F80042FFF7EBFEC0F804
:10440C000442FFF7E7FE0023C1F80435FFF7E2FE94
:10441C00BFF34F8F0849104BCA6802F4E062134394
:10442C00CB60BFF34F8F00BFFDE710BD00300140E4
:10443C0000C007400DF0ADBA00ED00E000500040A8
:10444C0076C8020000C0004071C802000010004095
:10445C006CC8020000E001400400FA0530B50468A5
:10446C00CCB1BFF35B8FB4FA84F3C3F11F03DBB29F
:10447C0001229A4024EA020250E8005FA54204D1CE
:10448C0040E8002CBCF1000FF6D1BFF35B8FE6D1F6
:10449C0002480B7030BD0248FCE700BF0000AD0BBA
:1044AC000200AD0B10B50368CB40DB0714D401231D
:1044BC008B400268BFF35B8F43EA020150E8004F68
:1044CC00944204D140E8001CBCF1000FF6D1BFF3BC
:1044DC005B8FEED1014810BD0148FCE70000AD0B2D
:1044EC000400AD0B014BC3F80405704700F001400C
:1044FC00F7B5044618B1012823D003B0F0BD4FF036
:10450C0080430222C3F80823C3F80401D3F8042122
:10451C000122DA60064601238DF8073042F210754D
:10452C004FF08047D4B1012CE7D1D7F80C3403F409
:10453C008033AEBB83B301201AF057FD013DF4D19B
:10454C002AE04FF080430022C3F80803C3F800218F
:10455C00D3F8002158600DF10706DCE7D7F81834C2
:10456C0003F480333EB9002BC7D001201AF03DFD77
:10457C00013DF3D1C1E7D7F8182402F003023260F1
:10458C00002BBAD09DF80700012803D11AF02DFD9D
:10459C00013DC7D1012CB0D1054B00225A71ACE7BB
:1045AC00D7F80C2402F001023270002BEAD1F3E7A9
:1045BC0048490020044B1A7922B9012218609A80CC
:1045CC000248704702487047484900200000AD0B74
:1045DC000C00AD0B38B510B1012843D038BD4FF0ED
:1045EC008042D2F81814D2F81834C8032ED503F030
:1045FC000303012B04D013B10020FFF779FF002334
:10460C004FF08042C2F818350023C2F80431D2F8BA
:10461C0004310223C2F80433184AD2F8FC0040F0EB
:10462C008073C2F8FC30164B1C6844F00101196011
:10463C005D685968491BB1F50A5FFAD31C604FF0ED
:10464C008043C2F8FC0001229A60C7E7D2F8143408
:10465C00D907D4D5D2F81C349B07CDD40223C2F889
:10466C000433BBE74FF080430022C3F80021D3F89A
:10467C000021C3F804031860B0E700BF00ED00E0B0
:10468C00001000E010B54FF08043D3F800216AB160
:10469C000022C3F80021D3F800210122C3F808231B
:1046AC00114B587910B95A711B6898474FF08043D9
:1046BC00D3F8042172B10022C3F80421D3F80421E9
:1046CC00D3F81824D3F81824920704D10122C3F884
:1046DC0018259A6010BD0222C3F80823024BBDE8CE
:1046EC0010401B680120184748490020C0B2034BFA
:1046FC00083033F81000C0F340107047F40000206D
:10470C00C0B2034B083033F81000C0F340007047C0
:10471C00F4000020C0B2034B083033F81000400BFB
:10472C00704700BFF400002070B500F108030C4C7A
:10473C0034F81330DA0505460E4607D5C3F3432388
:10474C0004EBC30254F8333052689847A3682BB17A
:10475C00E26831462846BDE87040184770BD00BF7E
:10476C00F400002010B4C0B2114A083032F81030F6
:10477C00D9051BD5C3F3432123F4F85322F8103089
:10478C0002F10E04002034F8023F13F4807F03D0B2
:10479C00C3F34323994209D001302028F3D10023DD
:1047AC0042F83130034810BCFFF77CBE10BC704798
:1047BC00F400002048010020F0B50146104A114CCD
:1047CC0000200125064602F14043A3F5C2439B0895
:1047DC0005FA03F3194204D0176817B1166017686D
:1047EC0018430432A242EED1074BD3F87C2132B1EC
:1047FC000022C3F87C21D3F87C3140F00040F0BD9E
:10480C00006100402061004000600040F0B50446AB
:10481C0085B017461D4601B3FFF772FF18B120464D
:10482C00FFF764FF08BB0023CDE900338DF80E3091
:10483C008DF80F300DF10F020B4620460DF10E01D5
:10484C001AF0F8FBE3B24449083331F8132022F094
:10485C00020242F0010221F8132057B320463E78A1
:10486C007A68FFF74DFF10B1C2B13C4823E0E3B2C8
:10487C00DFF8E4C008333CF8131021F02001C90420
:10488C00C90C2CF813104AB1032EEED87A6817789D
:10489C009EB9334B07F5A27743F82760E3B22E4954
:1048AC00083331F8132022F01C0242EA860221F868
:1048BC0013203DBB2B4805B0F0BDBA0002F180427D
:1048CC0002F5C04241EA4731D2F8100520F003004E
:1048DC00C2F81005D2F8100520F4473020F44070CF
:1048EC00C2F81005D2F810E5200200F4F85040EAA6
:1048FC000E0040EA064041F020012CF81310C2F8DB
:10490C001005CBE7D5E900672046FFF72BFF002EFB
:10491C00D0D0114DD5E90023964201D19F4219D038
:10492C0011480DF10F01FFF799FD0E4B9842C2D1C2
:10493C009DF80F2045F83260E4B205EBC203083451
:10494C005F6035F8143043EA422343F4807325F852
:10495C001430AFE70022EDE7F40000200400AD0BAB
:10496C00006000400000AD0B48010020F0B504468B
:10497C0085B0164629B3FFF7C3FE20B92046FFF7D2
:10498C00B5FE00285FD1E5B2304F083537F8153049
:10499C0013F01C0F02D04B78012B54D001238DF84F
:1049AC000F300023CDE900134A1C8B1C20460DF15F
:1049BC000F011AF03FFB37F8153043F0030327F8CB
:1049CC00153016B9224805B0F0BD2046FFF798FE09
:1049DC00C8B3E5B21D4F96F800C00835614637F8EC
:1049EC001500890020F0200001F18041C00401F580
:1049FC00C041C00C27F815000023C1F8103572789F
:104A0C00002ADFD0D1F81035B67823F4981323F4AC
:104A1C00F853C1F8103512042302D1F810E502F452
:104A2C00403203F4F8531343320543EA0E0302F405
:104A3C00801240EA4C30134340F0200027F8150058
:104A4C00C1F81035BEE70348BDE700BFF4000020F5
:104A5C000000AD0B0400AD0B014BC3E90201704724
:104A6C00F400002008B50246FFF740FE40B1D2B278
:104A7C00044B0548083233F812305B0B0B7008BD41
:104A8C000248FCE7F40000200000AD0B0400AD0B65
:104A9C0070B50F4C94F85860BEB90E4D402231469B
:104AAC0004F1100025F044FEC5F87C610620D5F811
:104ABC007C31FDF7CFF84FF00043C5F804330648BE
:104ACC00012384F85830636570BD0448FCE700BFCF
:104ADC00F4000020006000400000AD0B0500AD0BA1
:104AEC00034B93F85800003818BF0120704700BFE3
:104AFC00F400002001460148FFF7D4BC440100201B
:104B0C0001460148FFF7AABC4401002037B5044612
:104B1C00FFF7ECFD08B32046FFF7F2FD0546E0B9C0
:104B2C002046FFF7F7FD03B29B0003F1804202F52C
:104B3C00C24203F1804303F5C04315601268D3F8F9
:104B4C00102542F00102C3F8102521B1134A0123AC
:104B5C008340C2F8043303B030BDE3B2104A0833CB
:104B6C0032F81330C3F38203042B12D0052B12D06E
:104B7C0001A801941AF054FA019BD0F81015D940F1
:104B8C0001F001010231204603B0BDE830401AF0BB
:104B9C009ABA0321F7E70221F5E700BF0060004055
:104BAC00F400002008B50246FFF7A0FDC0B1104686
:104BBC00FFF7A6FDA0B91046FFF7ACFD0B4A012389
:104BCC008340C2F8083303B29B0003F1804303F522
:104BDC00C043D3F8102522F00302C3F8102508BDFA
:104BEC00BDE80840002110461AF06DBA0060004084
:104BFC0073B5C5B2174E0835044636F81530DB07C9
:104C0C0026D5FFF7CFFF2046FFF770FD40B12046B9
:104C1C00FFF780FD104B00F5A270002243F8202016
:104C2C002046FFF79FFD002301A826F815300194BC
:104C3C001AF0F6F9019B00EB8300084BD0F8002723
:104C4C00134043F00203C0F80037054802B070BDB2
:104C5C000448FBE7F400002000600040F0F8FCFF83
:104C6C000000AD0B0400AD0B2DE9F347534BD3F80B
:104C7C000403C0B240F00040FFF79EFD051E1ADA97
:104C8C004FF0A043DFF83881D3F820250092C3F809
:104C9C0020250127009CA4B94FF00040FFF78CFDA4
:104CAC004FF0A042D2F820350093C2F82035002BEB
:104CBC00EFD125F000450124002D66D102B0BDE8EE
:104CCC00F08794FAA4F4B4FA84F4E00804F108032D
:104CDC0004F0070238F813901DF80030019407FA1D
:104CEC0002F223EA02030DF8003001A81AF098F939
:104CFC00019B03F5E0734FEA990150F82360C9F367
:104D0C00820A4B07D146C6F3014623D520465146AD
:104D1C00FFF70AFD01A801941AF082F9019B03F533
:104D2C00E073F6B250F82330C3F301439E4207D12F
:104D3C00002120461AF0C7F9314620461AF0C3F973
:104D4C0001A801941AF06CF9019B07FA03F3C0F85F
:104D5C0020359FE7022E0CD1032120461AF0B3F91F
:104D6C000AF00503012BEBD149462046FFF7DCFC8A
:104D7C00E6E7022120461AF0A6F9BAF1030FF3D0A8
:104D8C00032EDDD1BAF1020FEDE795FAA5F3B3FAD4
:104D9C0083F304FA03F29B0003F1804303F5C04351
:104DAC0025EA0205D3F81005D3F81015C0F304203A
:104DBC00C1F30141FFF7B8FC7EE700BF0060004083
:104DCC00F400002001460148FFF748BB50010020C9
:104DDC0007B5019001A81AF096F9019B00EB83002E
:104DEC00054BD0F80027134043F00303C0F80037FD
:104DFC0003B05DF804FB00BFF0F8FCFF73B5CB7B90
:104E0C000446002B38D10B7B0878012B77D81AF08D
:104E1C0091F90B78019301A81AF075F9019B00EB3D
:104E2C0083003C4BD0F80027134043F00103C0F83B
:104E3C0000374878FF2804D01AF07CF94878FFF73F
:104E4C00C7FF8B78FF2B0FD001A88D7B01931AF035
:104E5C005AF9019B00EB83002E4BD0F8002713402E
:104E6C0043EA8503C0F80037C878FF2804D01AF04D
:104E7C0054F9C878FFF7ACFF23792748CA7828255E
:104E8C0005FB03039A770B7C9BB94B7825680E784E
:104E9C00FF2B18BF1A468B78C5F8086508BF4FF072
:104EAC00FF32FF2B08BF4FF0FF33C5F80C25C5F8B8
:104EBC00103523688A68C3F824254B7B0A7B256848
:104ECC00003B18BF0123022A1CD0032A1DD0012A43
:104EDC0001D143F00203C5F85435237949792822CE
:104EEC0002FB0303D97723795343C35883B120685A
:104EFC0040F3073002B0BDE87040FCF7ABBE1AF0CF
:104F0C000CF986E743F00403E5E743F00603E2E718
:104F1C0002B070BDF0F8FCFF5049002007B50190BD
:104F2C0001A81AF0F0F8019B00EB8300054BD0F8B8
:104F3C000027134043F00203C0F8003703B05DF8BC
:104F4C0004FB00BFF0F8FCFF2DE9F04190F8048061
:104F5C00144C4FF0280C0CFB08FC04EB0C06074619
:104F6C0096F81CE0BEF1000F19D144F80C207360C8
:104F7C0041B1CB7B86F82530CB78B3774B79F3777F
:104F8C00FFF73CFF3A6808480123C2F80035282295
:104F9C0002FB0844002262772377BDE8F0810348C6
:104FAC00FBE700BF504900200000AD0B0500AD0B26
:104FBC0070B50679194C056828237343E35833B14F
:104FCC0045F30730FCF754FE0423C5F808330023DF
:104FDC00C5F80035282303FB064393F82530BBB9ED
:104FEC00D5F80805FFF79AFFD5F81005421C01D03B
:104FFC00FFF794FFD5F80C05431C01D0FFF78EFF8B
:10500C00282303FB0643987FFF2801D0FFF786FF78
:10501C00282303FB06440023237770BD504900204E
:10502C002DE9F8430779394C28237B439046E21845
:10503C000E46517F8146002966D1E3580BB10123FE
:10504C00537796E80F00282505FB074505F10C0C56
:10505C008CE80F00A87F0023FF2885F8243001D0AE
:10506C001AF068F82823B8F1000F06D003FB0743A9
:10507C00002227485A77BDE8F883D9F8005003FB83
:10508C0007430422C5F80823C3F82080C5F808811B
:10509C00D5F8082172689AB133681B78C5F81C35AD
:1050AC007368012B0ED933685B78C5F81C3528233F
:1050BC007B43E65876B10423C5F804331548DAE788
:1050CC00DB7FEBE7F368012BF1D9282303FB0743C4
:1050DC00DB7FEAE707EB870104EBC101D5F8083168
:1050EC00002BFBD0C5F808612846D5F808311AF01A
:1050FC002EF80028F2D1282303FB0744A07FFF28B9
:10510C00DCD01AF00AF8D9E70348B4E7504900207C
:10511C000300AD0B0000AD0B0B00AD0B02494FF0C3
:10512C0040201AF047B800BF5049002001490248FE
:10513C001AF040B8784900200030024013B50446FC
:10514C0070B90FF0ADF8044650B9064B0093064900
:10515C00064B362202200FF037FD204602B010BD60
:10516C002469FAE7DDC80200A9C8020027CA0200B8
:10517C0013B5044670B90FF093F8044650B9064BBA
:10518C0000930649064B472202200FF01DFD2046D6
:10519C0002B010BD6469FAE70CC90200A9C802008C
:1051AC0012CA020013B5044670B90FF079F8044620
:1051BC0050B9064B00930649064B602202200FF0B3
:1051CC0003FD204602B010BDE469FAE73DC90200B8
:1051DC00A9C80200FCC9020013B5044670B90FF04F
:1051EC005FF8044650B9064B00930649064B7122F2
:1051FC0002200FF0E9FC204602B010BD246AFAE749
:10520C0076C90200A9C80200E6C9020013B504461B
:10521C0078B90FF045F8044658B9094B00930220B1
:10522C00084B094940F2B9120FF0CEFC204602B0EF
:10523C0010BDD4F854010028D4BF00200120F6E79B
:10524C00B0C90200C6C90200A9C8020070B5044664
:10525C0000F0FAF9B8B963680021986819F0CAFF30
:10526C000E460546E5B92146284619F0D0FF024600
:10527C0098B163682946986819F0BCFF002844D19E
:10528C00012A4FD00AE0006883680BB1217A984755
:10529C00237E98075FD4D907DDD50022104670BD58
:1052AC002B683BB9636801369868314619F0A2FF48
:1052BC000546D7E795F908202B7A002AF2DA802BDD
:1052CC0004D0227A23F080039342EBD16B68E36025
:1052DC002B6820469847237E9A073CD4DB07E1D500
:1052EC00DBE790F90820037A002A13DB13B1227A4A
:1052FC009A420FD14368E360036820469847237EA7
:10530C009E0728D4D80705D5C7E7012AC6D103685C
:10531C00002BE6D1636801359868294619F06AFFBD
:10532C000028F4D160684368ABB1237E590712D4CE
:10533C00237A233B012B10D94FF480411AF0F4FA55
:10534C0048B1237A113BDBB21B2B06D8084A22FA50
:10535C0003F3DA0701D50122A0E763685B68636099
:10536C002046FFF773FF431E5A425A4196E700BF8F
:10537C00FF270F0B10B588B0B8B10023CDE904326C
:10538C009DF81C300A4C8DF80C1023F00703CDE966
:10539C0001008DF81C3001A8236806932060FFF7EC
:1053AC0055FF069B236008B010BD0120FBE700BF32
:1053BC00A0490020074B1B6803B970475A6882420A
:1053CC0002D01A68824203D11A7E42F001021A7688
:1053DC005B69F1E7A04900202DE9FF4104460F4627
:1053EC0016461D4600F028FCA268937E591C61F3FA
:1053FC0005039376D4F8088098F81A0000F03F0063
:10540C0000EB40008100D8F80C000FF077FCC8F8D6
:10541C000C00A368DA6862B9194B0293194B01931B
:10542C00194B009319491A4BAB2203200FF0CCFBFC
:10543C00FEE79B7E6FF00B0C0C2003F03F0310FB80
:10544C0003C3D750A368997EDB6801F03F0110FBC2
:10545C0001C10B441E72A3689A7EDB6802F03F0206
:10546C0010FB02C213445D60A268937E03F03F03FD
:10547C0010FB03C0D368184404B0BDE8F08100BF32
:10548C0070CA02007ECA0200A0CA02003BCA020017
:10549C0029CB020007B5037A013B0F2B03D8006917
:1054AC0003B05DF804FB054B00930220044B054947
:1054BC004FF490720FF088FB0020F1E7C0CA020095
:1054CC0016CB02003BCA020007B5037A143B052B2E
:1054DC0003D8006903B05DF804FB054B0093022070
:1054EC00044B05494FF49E720FF06EFB0020F1E760
:1054FC00C0CA020000CB02003BCA020007B5027A08
:10550C00132A0B4609D10269B2F900109942B8BFAF
:10551C001946118003B05DF804FB054B0093054957
:10552C00054B40F26B1202200FF04EFBF2E700BF6E
:10553C00C0CA02003BCA0200E5CA02000148202191
:10554C0022F0B3BB204C0020014B1868704700BF01
:10555C00A449002010B50446064A074919F09FFEDD
:10556C0063692BB120B920460121BDE810401847D2
:10557C0010BD00BFB77D0200AB7D020010B507491E
:10558C00074A044619F08BFE6369014623B118B92A
:10559C002046BDE81040184710BD00BFB17D020089
:1055AC00BF7D02007FB50C460546002840D008465A
:1055BC0019F0FBFE284622F0F2FB014628BB2046E0
:1055CC001AF0C0F940B1A3689B6853B1DB681B6843
:1055DC00A34206D119F0D5FEA36813B9204600F0FA
:1055EC002BFBA36828469D6022F082FB064698B9E7
:1055FC00104B0293104B0193104B00931049114B1D
:10560C008F2203200FF0E0FAFEE70B68A3420FD0C5
:10561C00284622F0CAFBD0E70460284622F0BFFBE4
:10562C00864205D1284604B0BDE8704019F0A9BEE9
:10563C0004B070BD70CA020080CB0200A0CA020088
:10564C003DCB02008DCB0200014B1868704700BFA8
:10565C00AC49002038B50D46044600283ED04379AD
:10566C0043F002034371214B1B68834202BF204B62
:10567C0000221A6003681B78013B012B12D821B958
:10568C00416381620023E3620CE0436B8B4204BFF5
:10569C0000234363836A8B4204BF00238362C36A83
:1056AC008B42EFD038BD437943F00203437103685A
:1056BC001B78013B012B11D81DB945638562C4626F
:1056CC000CE0436BAB4204BF00234363836AAB42E1
:1056DC0004BF00238362C36AAB42F0D00EF01EFEFF
:1056EC000028E0D1024B1860DCE700BFAC49002079
:1056FC00A8490020014B1868704700BFA84900203A
:10570C002DE9F047A4B0054619F09BFD0646284646
:10571C0019F093FD122E04464BD1284619F095FD35
:10572C000378022B054608D01722002120461CF0D6
:10573C00DEF8064620B102232B7024B0BDE8F087BA
:10574C0001460B2220461CF0D2F868220FFA80F892
:10575C00314620461CF0CBF86922074631462046DC
:10576C001CF0C5F8B4F91620B4F918E0B4F91AC055
:10577C00A18ABBB280B2C91A121A73446044ADF844
:10578C004810ADF84A20ADF84C30ADF84E006868C2
:10579C00424612A922F0D2F808B90123CCE7212203
:1057AC00314620461CF0A3F8C0B2FC28F5D92E7067
:1057BC00C3E7152E40F086802846FFF785FE04AF20
:1057CC000646384604F05EFB3422002120461CF0CD
:1057DC008EF828B19DF8333043F001038DF8333047
:1057EC003A46002120461AF0E2FA682200212046AF
:1057FC001CF07DF869220546002120461CF077F844
:10580C00B4F91AC0B4F91620A18AB4F918E0ABB2F5
:10581C0080B2121AC91A60447344ADF80810ADF87E
:10582C000E00314612A80025ADF80C30ADF80A2058
:10583C000DF108081AF0B4FDC14B139312AA1A21EA
:10584C00204614951697CDF854801F95FFF792FDBE
:10585C001722294620461CF04AF868B3BDF91030CF
:10586C0053B3424639463046DDF820A008951DF06A
:10587C0078FB18200FF068FA04F114018146BDF989
:10588C0010202B4604F0CCF804F59071484603F038
:10589C0039FFBAF1000F05D112AA1B212046FFF7E0
:1058AC0069FD4AE78DF813508DF832508DF83A5057
:1058BC008DF84650CDF820A04246394630461DF0B2
:1058CC0050FBE9E7182E7FF438AF2846FFF7FCFDB4
:1058DC0002AA0646694620461BF0A6FB684621F044
:1058EC0000FF002800F0BC8004AD284604F0CAFA82
:1058FC0021224FF4803120461BF0F9FFC0B2022860
:10590C008DF8130007D920224FF4803120461BF06C
:10591C00EEFFADF8140031224FF4803120461BF01D
:10592C00E6FFC0B202288DF8320013D932224FF4B0
:10593C00803120461BF0DBFF00B20028ADF83000B0
:10594C0040F3F58030224FF4803120461BF0CFFF1E
:10595C00ADF82E0045224FF4803120461BF0C7FFD6
:10596C00C0B202288DF846001BD940224FF480317A
:10597C0020461BF0BCFF00B20028ADF83E0040F3FF
:10598C00DA8043224FF4803120461BF0B0FF4422D2
:10599C00ADF844004FF4803120461BF0A8FFADF861
:1059AC003C0060224FF4803120461BF0A0FFC0B2B7
:1059BC00FC280BD89DF8133043431B128DF8133081
:1059CC0043431B0A8DF832308DF846309DF8322057
:1059DC009DF8133013439DF84620134346D00B22F9
:1059EC004FF4803120461BF082FF3146ADF8100099
:1059FC0012A81AF0D5FC524B139302231493684649
:105A0C004FF4803316951F9321F06BFE80B112AAD0
:105A1C001A212046CDF854D0FFF7ACFC6A46294633
:105A2C0030461DF09EFA12AA1B212046FFF7A2FC5D
:105A3C0002A821F056FEC8B102AB12AA1A212046C8
:105A4C001593FFF797FC02AB1A462946304615937F
:105A5C001DF087FA12AA1B212046FFF78BFC05E0EC
:105A6C0002A821F03EFE00287FF43EAF1722002151
:105A7C0020461BF03CFF50B104F5907003F09AFEE9
:105A8C00054620B11DF02DFA28460FF0DDF9342221
:105A9C00002120461BF02BFF00283FF44EAE0DF1E9
:105AAC0010080025404604F0EDF9424629462046F0
:105ABC008DF813508DF82A508DF83A508DF84650C9
:105ACC001AF075F96822294620461BF010FF69224E
